{
  "contractName": "CourseDetails",
  "abi": [
    {
      "inputs": [],
      "payable": false,
      "stateMutability": "nonpayable",
      "type": "constructor"
    },
    {
      "anonymous": false,
      "inputs": [
        {
          "indexed": false,
          "internalType": "uint256",
          "name": "id",
          "type": "uint256"
        },
        {
          "indexed": false,
          "internalType": "string",
          "name": "courseName",
          "type": "string"
        },
        {
          "indexed": false,
          "internalType": "address payable",
          "name": "owner",
          "type": "address"
        },
        {
          "indexed": false,
          "internalType": "string",
          "name": "emailCustomer",
          "type": "string"
        },
        {
          "indexed": false,
          "internalType": "string",
          "name": "detail",
          "type": "string"
        },
        {
          "indexed": false,
          "internalType": "string",
          "name": "doctorName",
          "type": "string"
        },
        {
          "indexed": false,
          "internalType": "string",
          "name": "hospitalName",
          "type": "string"
        },
        {
          "indexed": false,
          "internalType": "uint256",
          "name": "datetimeAppoint",
          "type": "uint256"
        },
        {
          "indexed": false,
          "internalType": "uint256",
          "name": "price",
          "type": "uint256"
        },
        {
          "indexed": false,
          "internalType": "bool",
          "name": "purchased",
          "type": "bool"
        }
      ],
      "name": "CourseCreated",
      "type": "event"
    },
    {
      "anonymous": false,
      "inputs": [
        {
          "indexed": false,
          "internalType": "uint256",
          "name": "id",
          "type": "uint256"
        },
        {
          "indexed": false,
          "internalType": "string",
          "name": "courseName",
          "type": "string"
        },
        {
          "indexed": false,
          "internalType": "address payable",
          "name": "owner",
          "type": "address"
        },
        {
          "indexed": false,
          "internalType": "string",
          "name": "emailCustomer",
          "type": "string"
        },
        {
          "indexed": false,
          "internalType": "string",
          "name": "detail",
          "type": "string"
        },
        {
          "indexed": false,
          "internalType": "string",
          "name": "doctorName",
          "type": "string"
        },
        {
          "indexed": false,
          "internalType": "string",
          "name": "hospitalName",
          "type": "string"
        },
        {
          "indexed": false,
          "internalType": "uint256",
          "name": "datetimeAppoint",
          "type": "uint256"
        },
        {
          "indexed": false,
          "internalType": "uint256",
          "name": "price",
          "type": "uint256"
        },
        {
          "indexed": false,
          "internalType": "bool",
          "name": "purchased",
          "type": "bool"
        }
      ],
      "name": "CoursePurchased",
      "type": "event"
    },
    {
      "constant": true,
      "inputs": [],
      "name": "courseCount",
      "outputs": [
        {
          "internalType": "uint256",
          "name": "",
          "type": "uint256"
        }
      ],
      "payable": false,
      "stateMutability": "view",
      "type": "function"
    },
    {
      "constant": true,
      "inputs": [
        {
          "internalType": "uint256",
          "name": "",
          "type": "uint256"
        }
      ],
      "name": "courses",
      "outputs": [
        {
          "internalType": "uint256",
          "name": "id",
          "type": "uint256"
        },
        {
          "internalType": "string",
          "name": "courseName",
          "type": "string"
        },
        {
          "internalType": "address payable",
          "name": "owner",
          "type": "address"
        },
        {
          "internalType": "string",
          "name": "emailCustomer",
          "type": "string"
        },
        {
          "internalType": "string",
          "name": "detail",
          "type": "string"
        },
        {
          "internalType": "string",
          "name": "doctorName",
          "type": "string"
        },
        {
          "internalType": "string",
          "name": "hospitalName",
          "type": "string"
        },
        {
          "internalType": "uint256",
          "name": "datetimeAppoint",
          "type": "uint256"
        },
        {
          "internalType": "uint256",
          "name": "price",
          "type": "uint256"
        },
        {
          "internalType": "bool",
          "name": "purchased",
          "type": "bool"
        }
      ],
      "payable": false,
      "stateMutability": "view",
      "type": "function"
    },
    {
      "constant": true,
      "inputs": [],
      "name": "name",
      "outputs": [
        {
          "internalType": "string",
          "name": "",
          "type": "string"
        }
      ],
      "payable": false,
      "stateMutability": "view",
      "type": "function"
    },
    {
      "constant": false,
      "inputs": [
        {
          "internalType": "string",
          "name": "_courseName",
          "type": "string"
        },
        {
          "internalType": "string",
          "name": "_detail",
          "type": "string"
        },
        {
          "internalType": "string",
          "name": "_doctorName",
          "type": "string"
        },
        {
          "internalType": "string",
          "name": "_hospitalName",
          "type": "string"
        },
        {
          "internalType": "uint256",
          "name": "_datetimeAppoint",
          "type": "uint256"
        },
        {
          "internalType": "uint256",
          "name": "_price",
          "type": "uint256"
        }
      ],
      "name": "createCourse",
      "outputs": [],
      "payable": false,
      "stateMutability": "nonpayable",
      "type": "function"
    },
    {
      "constant": false,
      "inputs": [
        {
          "internalType": "uint256",
          "name": "_id",
          "type": "uint256"
        },
        {
          "internalType": "string",
          "name": "_emailCustomer",
          "type": "string"
        }
      ],
      "name": "purchaseCourse",
      "outputs": [],
      "payable": true,
      "stateMutability": "payable",
      "type": "function"
    }
  ],
  "bytecode": "0x608060405260006001553480156200001657600080fd5b506040518060400160405280600c81526020017f436f75727365446574696c73000000000000000000000000000000000000000081525060009080519060200190620000649291906200006b565b506200011a565b828054600181600116156101000203166002900490600052602060002090601f016020900481019282601f10620000ae57805160ff1916838001178555620000df565b82800160010185558215620000df579182015b82811115620000de578251825591602001919060010190620000c1565b5b509050620000ee9190620000f2565b5090565b6200011791905b8082111562000113576000816000905550600101620000f9565b5090565b90565b6119da806200012a6000396000f3fe60806040526004361061004a5760003560e01c806306fdde031461004f5780631a0d6535146100df5780636605515914610380578063838ef61e146103ab57806396f979d214610470575b600080fd5b34801561005b57600080fd5b50610064610727565b6040518080602001828103825283818151815260200191508051906020019080838360005b838110156100a4578082015181840152602081019050610089565b50505050905090810190601f1680156100d15780820380516001836020036101000a031916815260200191505b509250505060405180910390f35b3480156100eb57600080fd5b5061037e600480360360c081101561010257600080fd5b810190808035906020019064010000000081111561011f57600080fd5b82018360208201111561013157600080fd5b8035906020019184600183028401116401000000008311171561015357600080fd5b91908080601f016020809104026020016040519081016040528093929190818152602001838380828437600081840152601f19601f820116905080830192505050505050509192919290803590602001906401000000008111156101b657600080fd5b8201836020820111156101c857600080fd5b803590602001918460018302840111640100000000831117156101ea57600080fd5b91908080601f016020809104026020016040519081016040528093929190818152602001838380828437600081840152601f19601f8201169050808301925050505050505091929192908035906020019064010000000081111561024d57600080fd5b82018360208201111561025f57600080fd5b8035906020019184600183028401116401000000008311171561028157600080fd5b91908080601f016020809104026020016040519081016040528093929190818152602001838380828437600081840152601f19601f820116905080830192505050505050509192919290803590602001906401000000008111156102e457600080fd5b8201836020820111156102f657600080fd5b8035906020019184600183028401116401000000008311171561031857600080fd5b91908080601f016020809104026020016040519081016040528093929190818152602001838380828437600081840152601f19601f82011690508083019250505050505050919291929080359060200190929190803590602001909291905050506107c5565b005b34801561038c57600080fd5b50610395610c16565b6040518082815260200191505060405180910390f35b61046e600480360360408110156103c157600080fd5b8101908080359060200190929190803590602001906401000000008111156103e857600080fd5b8201836020820111156103fa57600080fd5b8035906020019184600183028401116401000000008311171561041c57600080fd5b91908080601f016020809104026020016040519081016040528093929190818152602001838380828437600081840152601f19601f820116905080830192505050505050509192919290505050610c1c565b005b34801561047c57600080fd5b506104a96004803603602081101561049357600080fd5b810190808035906020019092919050505061151c565b604051808b8152602001806020018a73ffffffffffffffffffffffffffffffffffffffff1673ffffffffffffffffffffffffffffffffffffffff168152602001806020018060200180602001806020018981526020018881526020018715151515815260200186810386528f818151815260200191508051906020019080838360005b8381101561054757808201518184015260208101905061052c565b50505050905090810190601f1680156105745780820380516001836020036101000a031916815260200191505b5086810385528d818151815260200191508051906020019080838360005b838110156105ad578082015181840152602081019050610592565b50505050905090810190601f1680156105da5780820380516001836020036101000a031916815260200191505b5086810384528c818151815260200191508051906020019080838360005b838110156106135780820151818401526020810190506105f8565b50505050905090810190601f1680156106405780820380516001836020036101000a031916815260200191505b5086810383528b818151815260200191508051906020019080838360005b8381101561067957808201518184015260208101905061065e565b50505050905090810190601f1680156106a65780820380516001836020036101000a031916815260200191505b5086810382528a818151815260200191508051906020019080838360005b838110156106df5780820151818401526020810190506106c4565b50505050905090810190601f16801561070c5780820380516001836020036101000a031916815260200191505b509f5050505050505050505050505050505060405180910390f35b60008054600181600116156101000203166002900480601f0160208091040260200160405190810160405280929190818152602001828054600181600116156101000203166002900480156107bd5780601f10610792576101008083540402835291602001916107bd565b820191906000526020600020905b8154815290600101906020018083116107a057829003601f168201915b505050505081565b60008651116107d357600080fd5b60008551116107e157600080fd5b60008451116107ef57600080fd5b60008351116107fd57600080fd5b6000811161080a57600080fd5b60016000815480929190600101919050555060405180610140016040528060015481526020018781526020013373ffffffffffffffffffffffffffffffffffffffff168152602001604051806020016040528060008152508152602001868152602001858152602001848152602001838152602001828152602001600015158152506002600060015481526020019081526020016000206000820151816000015560208201518160010190805190602001906108c7929190611895565b5060408201518160020160006101000a81548173ffffffffffffffffffffffffffffffffffffffff021916908373ffffffffffffffffffffffffffffffffffffffff160217905550606082015181600301908051906020019061092b929190611895565b506080820151816004019080519060200190610948929190611895565b5060a0820151816005019080519060200190610965929190611895565b5060c0820151816006019080519060200190610982929190611895565b5060e0820151816007015561010082015181600801556101208201518160090160006101000a81548160ff0219169083151502179055509050507f6622b975ee325ac07f2f97f5e62b24ab43702e8852a9534634fb303248a4364d600154873388888888886000604051808a8152602001806020018973ffffffffffffffffffffffffffffffffffffffff1673ffffffffffffffffffffffffffffffffffffffff168152602001806020018060200180602001806020018981526020018881526020018715151515815260200186810386528e818151815260200191508051906020019080838360005b83811015610a87578082015181840152602081019050610a6c565b50505050905090810190601f168015610ab45780820380516001836020036101000a031916815260200191505b5086810385526000815260200160200186810384528c818151815260200191508051906020019080838360005b83811015610afc578082015181840152602081019050610ae1565b50505050905090810190601f168015610b295780820380516001836020036101000a031916815260200191505b5086810383528b818151815260200191508051906020019080838360005b83811015610b62578082015181840152602081019050610b47565b50505050905090810190601f168015610b8f5780820380516001836020036101000a031916815260200191505b5086810382528a818151815260200191508051906020019080838360005b83811015610bc8578082015181840152602081019050610bad565b50505050905090810190601f168015610bf55780820380516001836020036101000a031916815260200191505b509e50505050505050505050505050505060405180910390a1505050505050565b60015481565b610c24611915565b600260008481526020019081526020016000206040518061014001604052908160008201548152602001600182018054600181600116156101000203166002900480601f016020809104026020016040519081016040528092919081815260200182805460018160011615610100020316600290048015610ce65780601f10610cbb57610100808354040283529160200191610ce6565b820191906000526020600020905b815481529060010190602001808311610cc957829003601f168201915b505050505081526020016002820160009054906101000a900473ffffffffffffffffffffffffffffffffffffffff1673ffffffffffffffffffffffffffffffffffffffff1673ffffffffffffffffffffffffffffffffffffffff168152602001600382018054600181600116156101000203166002900480601f016020809104026020016040519081016040528092919081815260200182805460018160011615610100020316600290048015610dde5780601f10610db357610100808354040283529160200191610dde565b820191906000526020600020905b815481529060010190602001808311610dc157829003601f168201915b50505050508152602001600482018054600181600116156101000203166002900480601f016020809104026020016040519081016040528092919081815260200182805460018160011615610100020316600290048015610e805780601f10610e5557610100808354040283529160200191610e80565b820191906000526020600020905b815481529060010190602001808311610e6357829003601f168201915b50505050508152602001600582018054600181600116156101000203166002900480601f016020809104026020016040519081016040528092919081815260200182805460018160011615610100020316600290048015610f225780601f10610ef757610100808354040283529160200191610f22565b820191906000526020600020905b815481529060010190602001808311610f0557829003601f168201915b50505050508152602001600682018054600181600116156101000203166002900480601f016020809104026020016040519081016040528092919081815260200182805460018160011615610100020316600290048015610fc45780601f10610f9957610100808354040283529160200191610fc4565b820191906000526020600020905b815481529060010190602001808311610fa757829003601f168201915b5050505050815260200160078201548152602001600882015481526020016009820160009054906101000a900460ff1615151515815250509050600081604001519050600082600001511180156110215750600154826000015111155b61102a57600080fd5b81610100015134101561103c57600080fd5b8161012001511561104c57600080fd5b3373ffffffffffffffffffffffffffffffffffffffff168173ffffffffffffffffffffffffffffffffffffffff16141561108557600080fd5b82826060018190525033826040019073ffffffffffffffffffffffffffffffffffffffff16908173ffffffffffffffffffffffffffffffffffffffff16815250506001826101200190151590811515815250508160026000868152602001908152602001600020600082015181600001556020820151816001019080519060200190611112929190611895565b5060408201518160020160006101000a81548173ffffffffffffffffffffffffffffffffffffffff021916908373ffffffffffffffffffffffffffffffffffffffff1602179055506060820151816003019080519060200190611176929190611895565b506080820151816004019080519060200190611193929190611895565b5060a08201518160050190805190602001906111b0929190611895565b5060c08201518160060190805190602001906111cd929190611895565b5060e0820151816007015561010082015181600801556101208201518160090160006101000a81548160ff0219169083151502179055509050508073ffffffffffffffffffffffffffffffffffffffff166108fc349081150290604051600060405180830381858888f1935050505015801561124d573d6000803e3d6000fd5b507fd355fb221087345a3cfc7568844527c3edfd9ace83b51a06d47a081c5134e3b4600154836020015133856060015186608001518760a001518860c001518960e001518a61010001516001604051808b8152602001806020018a73ffffffffffffffffffffffffffffffffffffffff1673ffffffffffffffffffffffffffffffffffffffff168152602001806020018060200180602001806020018981526020018881526020018715151515815260200186810386528f818151815260200191508051906020019080838360005b8381101561133757808201518184015260208101905061131c565b50505050905090810190601f1680156113645780820380516001836020036101000a031916815260200191505b5086810385528d818151815260200191508051906020019080838360005b8381101561139d578082015181840152602081019050611382565b50505050905090810190601f1680156113ca5780820380516001836020036101000a031916815260200191505b5086810384528c818151815260200191508051906020019080838360005b838110156114035780820151818401526020810190506113e8565b50505050905090810190601f1680156114305780820380516001836020036101000a031916815260200191505b5086810383528b818151815260200191508051906020019080838360005b8381101561146957808201518184015260208101905061144e565b50505050905090810190601f1680156114965780820380516001836020036101000a031916815260200191505b5086810382528a818151815260200191508051906020019080838360005b838110156114cf5780820151818401526020810190506114b4565b50505050905090810190601f1680156114fc5780820380516001836020036101000a031916815260200191505b509f5050505050505050505050505050505060405180910390a150505050565b6002602052806000526040600020600091509050806000015490806001018054600181600116156101000203166002900480601f0160208091040260200160405190810160405280929190818152602001828054600181600116156101000203166002900480156115ce5780601f106115a3576101008083540402835291602001916115ce565b820191906000526020600020905b8154815290600101906020018083116115b157829003601f168201915b5050505050908060020160009054906101000a900473ffffffffffffffffffffffffffffffffffffffff1690806003018054600181600116156101000203166002900480601f0160208091040260200160405190810160405280929190818152602001828054600181600116156101000203166002900480156116925780601f1061166757610100808354040283529160200191611692565b820191906000526020600020905b81548152906001019060200180831161167557829003601f168201915b505050505090806004018054600181600116156101000203166002900480601f0160208091040260200160405190810160405280929190818152602001828054600181600116156101000203166002900480156117305780601f1061170557610100808354040283529160200191611730565b820191906000526020600020905b81548152906001019060200180831161171357829003601f168201915b505050505090806005018054600181600116156101000203166002900480601f0160208091040260200160405190810160405280929190818152602001828054600181600116156101000203166002900480156117ce5780601f106117a3576101008083540402835291602001916117ce565b820191906000526020600020905b8154815290600101906020018083116117b157829003601f168201915b505050505090806006018054600181600116156101000203166002900480601f01602080910402602001604051908101604052809291908181526020018280546001816001161561010002031660029004801561186c5780601f106118415761010080835404028352916020019161186c565b820191906000526020600020905b81548152906001019060200180831161184f57829003601f168201915b5050505050908060070154908060080154908060090160009054906101000a900460ff1690508a565b828054600181600116156101000203166002900490600052602060002090601f016020900481019282601f106118d657805160ff1916838001178555611904565b82800160010185558215611904579182015b828111156119035782518255916020019190600101906118e8565b5b5090506119119190611980565b5090565b6040518061014001604052806000815260200160608152602001600073ffffffffffffffffffffffffffffffffffffffff1681526020016060815260200160608152602001606081526020016060815260200160008152602001600081526020016000151581525090565b6119a291905b8082111561199e576000816000905550600101611986565b5090565b9056fea265627a7a72315820f58897223d2246641fd8e5e624914a04cb8b730f8993a832f94719d80f204bf564736f6c63430005100032",
  "source": "pragma solidity ^0.5.0;\n\ncontract CourseDetails {\n  string public name;\n  uint public courseCount = 0;\n  mapping(uint => Course) public courses;\n\n  struct Course {\n    uint id;\n    string courseName;\n    address payable owner;\n    string emailCustomer;\n    string detail;\n    string doctorName;\n    string hospitalName;\n    uint datetimeAppoint;\n    uint price;\n    bool purchased;\n  }\n\n  event CourseCreated(\n    uint id,\n    string courseName,\n    address payable owner,\n    string emailCustomer,\n    string detail,\n    string doctorName,\n    string hospitalName,\n    uint datetimeAppoint,\n    uint price,\n    bool purchased\n  );\n\n  event CoursePurchased(\n    uint id,\n    string courseName,\n    address payable owner,\n    string emailCustomer,\n    string detail,\n    string doctorName,\n    string hospitalName,\n    uint datetimeAppoint,\n    uint price,\n    bool purchased\n  );\n\n  constructor() public {\n    name = \"CourseDetils\";\n  }\n\n  function createCourse(\n    string memory _courseName,\n    \n    string memory _detail,\n    string memory _doctorName,\n    string memory _hospitalName,\n    uint _datetimeAppoint,\n    uint _price) public {\n\n    require(bytes(_courseName).length > 0);\n    \n    require(bytes(_detail).length > 0);\n    require(bytes(_doctorName).length > 0);\n    require(bytes(_hospitalName).length > 0);\n\n    require(_price > 0);\n\n    courseCount++;\n    courses[courseCount] = Course(\n      courseCount,\n      _courseName,\n      msg.sender,\n      \"\",\n      _detail,\n      _doctorName,\n      _hospitalName,\n      _datetimeAppoint,\n      _price,\n      false\n      );\n    emit CourseCreated(\n      courseCount,\n      _courseName,\n      msg.sender,\n      \"\",\n      _detail,\n      _doctorName,\n      _hospitalName,\n      _datetimeAppoint,\n      _price,\n      false\n    );\n  }\n\n  function purchaseCourse(uint _id, string memory _emailCustomer) public payable {\n\n    Course memory _course = courses[_id];\n    address payable _seller  = _course.owner;\n\n    require(_course.id > 0 && _course.id <= courseCount);\n    require(msg.value >= _course.price);\n    require(!_course.purchased);\n    require(_seller != msg.sender);\n\n    _course.emailCustomer =_emailCustomer;\n    _course.owner = msg.sender; //transfer ownership to buyer\n    _course.purchased = true; \n    courses[_id] = _course; //update product\n    //pay seller by sending them from Ether\n    address(_seller).transfer(msg.value);\n\n    emit CoursePurchased(\n      courseCount,\n      _course.courseName,\n      msg.sender,\n      _course.emailCustomer,\n      _course.detail,\n      _course.doctorName,\n      _course.hospitalName,\n      _course.datetimeAppoint,\n      _course.price,\n      true);\n  }\n}",
  "sourcePath": "/Users/benzsupaluk/Term3-2/SoftwareArch/ETHospital/src/contracts/CourseDetails.sol",
  "compiler": {
    "name": "solc",
    "version": "0.5.16+commit.9c3226ce.Emscripten.clang"
  },
  "schemaVersion": "3.1.0",
  "updatedAt": "2020-05-25T13:43:32.305Z",
  "networkType": "ethereum",
  "devdoc": {
    "methods": {}
  },
  "userdoc": {
    "methods": {}
  }
}